:020000040800F2
:100000000000032051120008891100088B1100081C
:100010008D1100088F1100089111000800000000E8
:100020000000000000000000000000009311000824
:1000300095110008000000009711000899110008B0
:10004000A1120008A1120008A1120008A1120008C4
:10005000A1120008A1120008A1120008A1120008B4
:10006000A1120008A1120008A1120008A1120008A4
:10007000A1120008A1120008A1120008A112000894
:10008000A1120008A1120008A1120008A112000884
:10009000A1120008A1120008A1120008A112000874
:1000A000A1120008A1120008A1120008A112000864
:1000B000A1120008A1120008A1120008A112000854
:1000C000A1120008A1120008A1120008A112000844
:1000D000A1120008A1120008A1120008A112000834
:1000E000A1120008A1120008A1120008A112000824
:1000F000A1120008A1120008A1120008A112000814
:10010000A1120008A1120008A1120008A112000803
:10011000A1120008A1120008A1120008A1120008F3
:10012000A1120008A1120008A1120008A1120008E3
:10013000A1120008A1120008A1120008A1120008D3
:10014000A1120008A1120008A1120008A1120008C3
:10015000A1120008A1120008A1120008A1120008B3
:10016000A1120008A1120008A1120008A1120008A3
:10017000A1120008A1120008A1120008000000004E
:10018000A1120008A1120008A1120008A112000883
:10019000A1120008A1120008A1120008A112000873
:0C01A000A1120008A1120008A112000822
:1001AC0010B5054C237833B9044B13B10448AFF3A5
:1001BC0000800123237010BD0C0000200000000003
:1001CC00EC1200080C4B43B10C480D4910B5AFF3C1
:1001DC0000800C48036823B910BD0A48036833B982
:1001EC007047094B002BF7D0BDE810401847064B61
:1001FC00002BF5D0184700BF00000000EC120008DF
:10020C00100000200C0000200000000053B94AB977
:10021C00002908BF00281CBF4FF0FF314FF0FF3002
:10022C0000F07AB9ADF1080C6DE904CE00F006F8D7
:10023C00DDF804E0DDE9022304B070472DE9F04756
:10024C008C460D460446089E002B51D18A42174617
:10025C006DD9B2FA82FEBEF1000F0BD0CEF1200C9C
:10026C0001FA0EF520FA0CFC02FA0EF74CEA050C1A
:10027C0000FA0EF44FEA174A250CBCFBFAF81FFAE9
:10028C0087F90AFB18CC45EA0C4508FB09F3AB428D
:10029C000AD9ED1908F1FF3280F02381AB4240F20C
:1002AC002081A8F102083D44ED1AA4B2B5FBFAF086
:1002BC000AFB105544EA054400FB09F9A14509D98C
:1002CC00E41900F1FF3380F00A81A14540F2078167
:1002DC0002383C44A4EB090440EA08400021002EFB
:1002EC0061D024FA0EF4002334607360BDE8F0870B
:1002FC008B4207D9002E54D0002186E821000846F5
:10030C00BDE8F087B3FA83F1002940F08E80AB4250
:10031C0002D3824200F2FA80841A65EB03050120B5
:10032C00AC46002E3FD086E81010BDE8F08712B91D
:10033C000127B7FBF2F7B7FA87FEBEF1000F34D1F5
:10034C00EB1B3A0C1FFA87FC0121B3FBF2F8250CCE
:10035C0002FB183345EA03450CFB08F3AB4207D903
:10036C00ED1908F1FF3002D2AB4200F2D180804689
:10037C00ED1AA3B2B5FBF2F002FB105543EA0544AB
:10038C000CFB00FCA44507D9E41900F1FF3302D2A1
:10039C00A44500F2B8801846A4EB0C0440EA0840CF
:1003AC009DE731463046BDE8F087CEF1200405FAD2
:1003BC000EF307FA0EF720FA04F83A0C25FA04F4B7
:1003CC0048EA0308B4FBF2F14FEA184502FB11446A
:1003DC001FFA87FC45EA044501FB0CF3AB4200FA1B
:1003EC000EF409D9ED1901F1FF3080F08A80AB428F
:1003FC0040F2878002393D44EB1A1FFA88F5B3FBB3
:10040C00F2F002FB103345EA034500FB0CF3AB4260
:10041C0007D9ED1900F1FF386FD2AB426DD9023814
:10042C003D44EB1A40EA01418FE7C1F1200722FA63
:10043C0007F88B4005FA01F448EA030320FA07FE9B
:10044C004FEA134CFD404EEA040EB5FBFCF94FEAA3
:10045C001E440CFB19551FFA83F844EA054509FBA9
:10046C0008F4AC4202FA01F200FA01FA08D9ED18CC
:10047C0009F1FF3043D2AC4241D9A9F102091D4424
:10048C002D1B1FFA8EFEB5FBFCF00CFB10554EEA33
:10049C00054400FB08F8A04507D9E41800F1FF3526
:1004AC0029D2A04527D902381C4440EA0940A4EBC4
:1004BC000804A0FB02894C45C6464D4615D312D004
:1004CC0056B1BAEB0E0364EB050404FA07F7CB4004
:1004DC001F43CC40376074600021BDE8F08718469C
:1004EC00F8E69046E0E6C245EAD2B8EB020E69EBBC
:1004FC0003050138E4E72846D7E7404691E78146F3
:10050C00BEE7014678E702383C4445E7084608E771
:10051C00A8F102083D442BE7704700BF10B5044614
:10052C000E4B18784FF47A73B3FBF0F30C4A106847
:10053C00B0FBF3F000F086F868B90F2C01D901205C
:10054C0010BD002221464FF0FF3000F049F8034B5C
:10055C005C60002010BD012010BD00BF0000002019
:10056C000800002008B50B4B1A6842F400721A60A0
:10057C001A6842F480621A601A6842F480721A6037
:10058C00032000F01BF80020FFF7C8FF00F0ACFDC3
:10059C00002008BD003C0240034A1168034B1B7845
:1005AC000B441360704700BF28000020000000209F
:1005BC00014B1868704700BF28000020074AD36819
:1005CC0023F4E0631B041B0C000200F4E0601843EE
:1005DC0040F0BF6040F40030D060704700ED00E0A8
:1005EC0030B4164BDB68C3F30223C3F10704042CAD
:1005FC0028BF04241D1D062D17D9033B012505FA20
:10060C0004F4013C2140994005FA03F3013B1340EB
:10061C00194300280BDB0901C9B200F1604000F559
:10062C00614080F8001330BC70470023E6E700F00F
:10063C000F000901C9B2024B1954F4E700ED00E0B8
:10064C0014ED00E00138B0F1807F0AD2064B5860FF
:10065C00F021064A82F823100020986007221A60C5
:10066C0070470120704700BF10E000E000ED00E093
:10067C00042805D0054A136823F00403136070475F
:10068C00024A136843F004031360704710E000E063
:10069C00704708B5FFF7FCFF08BD0000F0B583B04C
:1006AC0000244BE04FEAD40E0EF1080E50F82E2029
:1006BC0004F00706B6000F27B74022EA07020F69BD
:1006CC0007FA06F6324340F82E2046E0092600E0F1
:1006DC00002606FA0EF632430233644E46F8232007
:1006EC00634B1A68EB4302EA03064F6817F4803F2A
:1006FC0001D045EA02065E4A1660526803EA020619
:10070C004F6817F4003F01D045EA0206584A56607C
:10071C00926803EA02064F6817F4801F01D045EA7D
:10072C000206534A9660D26813404E6816F4001FB6
:10073C0001D045EA02034E4AD36001340F2C00F27B
:10074C0092800123A3400A6803EA0205AB42F4D16C
:10075C004A68022AA6D0122AA4D006684FEA440E90
:10076C00032202FA0EF2D24316404F6807F0030739
:10077C0007FA0EF73E4306604E68771E012F03D929
:10078C00112E01D0122E0FD186681640CF6807FAB1
:10079C000EF73E438660466826EA03034E68C6F3AE
:1007AC000016A64033434360C3681A408B6803FAB3
:1007BC000EF31A43C2604B6813F0805FBDD0002368
:1007CC0001932C4B5A6C42F480425A645B6C03F4D8
:1007DC0080430193019BA3089E1C244A52F82620B7
:1007EC0004F003064FEA860E0F2606FA0EF622EAEE
:1007FC000602214FB8423FF46BAF204EB04222D0DC
:10080C0006F58066B04220D006F58066B0421ED058
:10081C0006F58066B0421CD006F58066B0421AD050
:10082C0006F58066B04218D006F58066B04216D048
:10083C0006F58066B04214D006F58066B0423FF4EF
:10084C0045AF0A2645E7012643E7022641E7032682
:10085C003FE704263DE705263BE7062639E7072652
:10086C0037E7082635E703B0F0BD00BF003801407C
:10087C00003C0140003802400000024000040240ED
:10088C0012B909048161704781617047436959400D
:10089C004161704710B582B000230193194B1A6C5B
:1008AC0042F080521A641B6C03F080530193019B3D
:1008BC000122154B1A60FFF77BFE0446134B5B6855
:1008CC0013F4803F08D1FFF773FE001BB0F57A7F5D
:1008DC00F4D9032002B010BD01220D4B1A60FFF7B2
:1008EC0067FE0446094B5B6813F4003F07D1FFF722
:1008FC005FFE001BB0F57A7FF4D90320EAE70020F5
:10090C00E8E700BF0038024040000E420070004093
:10091C0044000E42002800F0BB8170B582B0044642
:10092C00036813F0010F3BD0A74B9B6803F00C033B
:10093C00042B2CD0A44B9B6803F00C03082B21D068
:10094C006368B3F5803F4FD0B3F5A02F52D09E4BC8
:10095C001A6822F480321A601A6822F480221A6013
:10096C006368002B50D0FFF723FE0546964B1B689F
:10097C0013F4003F14D1FFF71BFE401B6428F5D97C
:10098C0003208AE1904B5B6813F4800FD8D08E4B18
:10099C001B6813F4003F03D06368002B00F07A81CE
:1009AC00236813F0020F55D0874B9B6813F00C0F84
:1009BC003ED0854B9B6803F00C03082B33D0E368C7
:1009CC00002B68D00122814B1A60FFF7F1FD054620
:1009DC007D4B1B6813F0020F54D1FFF7E9FD401B50
:1009EC000228F5D9032058E1774A136843F4803381
:1009FC001360B5E7744B1A6842F480221A601A68C7
:100A0C0042F480321A60ABE7FFF7D2FD05466E4B1D
:100A1C001B6813F4003FC3D0FFF7CAFD401B6428CA
:100A2C00F5D9032039E1684B5B6813F4800FC6D10C
:100A3C00654B1B6813F0020F04D0E368012B01D047
:100A4C0001202AE1604A136823F0F803216943EA84
:100A5C00C1031360236813F0080F40D0636963B3BC
:100A6C0001225B4B1A60FFF7A3FD0546564B5B6FEB
:100A7C0013F0020F33D1FFF79BFD401B0228F5D971
:100A8C0003200AE1504A136823F0F803216943EA72
:100A9C00C1031360DEE700224C4B1A60FFF788FDA0
:100AAC000546494B1B6813F0020FD3D0FFF780FDAE
:100ABC00401B0228F5D90320EFE00022444B1A60BA
:100ACC00FFF776FD0546404B5B6F13F0020F06D027
:100ADC00FFF76EFD401B0228F5D90320DDE02368EB
:100AEC0013F0040F79D0384B1B6C13F0805F33D1AB
:100AFC0000230193344B1A6C42F080521A641B6C25
:100B0C0003F080530193019B0125324B1B6813F4B6
:100B1C00807F23D0A368012B34D0052B38D02A4BEF
:100B2C001A6F22F001021A671A6F22F004021A6778
:100B3C00A368002B36D0FFF73BFD0646224B1B6FFC
:100B4C0013F0020F48D1FFF733FD801B41F28833BD
:100B5C009842F3D90320A0E00025D6E71D4A13687C
:100B6C0043F480731360FFF723FD0646194B1B6893
:100B7C0013F4807FCED1FFF71BFD801B0228F5D923
:100B8C0003208AE0104A136F43F001031367CFE789
:100B9C000D4B1A6F42F004021A671A6F42F00102F1
:100BAC001A67C5E7FFF704FD0646074B1B6F13F0EA
:100BBC00020F11D0FFF7FCFC801B41F288339842E6
:100BCC00F3D9032069E000BF00380240000047421F
:100BDC00800E474200700040E5B9A369002B5BD042
:100BEC00304A926802F00C02082A58D0022B17D017
:100BFC0000222D4B1A60FFF7DBFC0446294B1B68C7
:100C0C0013F0007F42D0FFF7D3FC001B0228F5D96C
:100C1C00032042E0234A136C23F080531364DCE777
:100C2C000022214B1A60FFF7C3FC05461D4B1B68C5
:100C3C0013F0007F06D0FFF7BBFC401B0228F5D950
:100C4C0003202AE0E369226A1343626A43EA8213AF
:100C5C00A26A5208013A43EA0243E26A43EA026397
:100C6C00104A53600122104B1A60FFF7A1FC044696
:100C7C000C4B1B6813F0007F06D1FFF799FC001B8F
:100C8C000228F5D9032008E0002006E0002004E04B
:100C9C0001207047012000E0002002B070BD01204F
:100CAC00FBE700BF0038024060004742F8B5314B0B
:100CBC009B6803F00C03042B59D0082B01D02E4851
:100CCC00F8BD2C4B5A6802F03F025B6813F4800F9E
:100CDC002AD0284B5B68C3F388131E4600275C019F
:100CEC000025E41A65EB0705A90141EA9461A0010E
:100CFC00001B61EB0501CB0043EA5073C400A01943
:100D0C0043EB07014B0243EAD053440220461946F9
:100D1C000023FFF77BFA174B5B68C3F301430133E6
:100D2C005B00B0FBF3F0F8BD124B5B68C3F38813A8
:100D3C001E4600275C010025E41A65EB0705A90196
:100D4C0041EA9461A001001B61EB0501CB0043EA71
:100D5C005073C400A01943EB07018B0243EA905374
:100D6C008402204619460023FFF750FAD3E70348C4
:100D7C00F8BD00BF003802400024F40000127A00D5
:100D8C00002800F09D8070B504464F4B1B6803F0A3
:100D9C000F038B4209D2CBB24B4A1370136803F08A
:100DAC000F03994201D0012070BD236813F0020F8C
:100DBC0017D013F0040F04D0444A936843F4E05363
:100DCC009360236813F0080F04D0404A936843F4EF
:100DDC00604393603D4A936823F0F003A06803439B
:100DEC0093600D46236813F0010F32D06368012B1A
:100DFC0021D09A1E012A25D9344A126812F0020F0A
:100E0C0060D032498A6822F0030213438B60FFF7EB
:100E1C00CFFB06462D4B9B6803F00C036268B3EBCB
:100E2C00820F16D0FFF7C4FB801B41F28833984227
:100E3C00F0D9032070BD254A126812F4003FE0D1AE
:100E4C00012070BD214A126812F0007FD9D1012017
:100E5C0070BD1D4B1B6803F00F039D4209D2EAB213
:100E6C00194B1A701B6803F00F039D4201D001202F
:100E7C0070BD236813F0040F06D0144A936823F452
:100E8C00E053E1680B439360236813F0080F07D01D
:100E9C000E4A936823F46043216943EAC1039360CB
:100EAC00FFF704FF094B9B68C3F30313084AD35C99
:100EBC00D840084B18600020FFF730FB002070BDB5
:100ECC0001207047012070BD003C024000380240F8
:100EDC000413000808000020014B1868704700BF7D
:100EEC000800002030B589B000240094184B1A6B10
:100EFC0042F080021A631A6B02F080020092009A90
:100F0C0001941A6B42F001021A631A6B02F001028F
:100F1C000192019A02941A6B42F040021A631B6B05
:100F2C0003F040030293029B0A4D22464FF4C0414A
:100F3C002846FFF7A5FC4FF4C04303930123049309
:100F4C000594069403A92846FFF7A8FB09B030BD09
:100F5C00003802400018024010B582B0144B1A6CD5
:100F6C0042F001021A641A6A42F001021A621A6A09
:100F7C0022F001021A624FF080444FF40043E36206
:100F8C0040F6BB23A3620023636242F6AA220092BE
:100F9C0001220321204600F038F9236843F00103B5
:100FAC002360236A43F48073236202B010BD00BF38
:100FBC0000380240FEE7000000B595B00021019119
:100FCC002E4B1A6C42F080521A641B6C03F0805347
:100FDC000193019B02912A4B1A6842F440421A6019
:100FEC001B6803F440430293029B012308934FF4C4
:100FFC008033099302220E924FF480030F93042343
:10100C001093B42111911292139308A8FFF782FC4C
:10101C0038BBFFF73FFC40BB0F2303930223049321
:10102C00002305934FF4A05306934FF4805307937A
:10103C00052103A8FFF7A4FED8B9FFF74DFF114B0C
:10104C00A3FB00308009FFF7FDFA0420FFF710FB2B
:10105C00002211464FF0FF30FFF7C2FA15B05DF8D1
:10106C0004FBC5210848FFF7A5FFCC210648FFF774
:10107C00A1FFDA210448FFF79DFF00BF00380240B2
:10108C0000700040D34D62101C13000808B5FFF728
:10109C0069FAFFF791FFFFF725FFFFF75DFF05E00A
:1010AC004FF080431B6913F0080F10D14FF08043B1
:1010BC001B6913F0010FF3D06FF001024FF0804366
:1010CC001A614FF480410748FFF7E0FBE8E76FF047
:1010DC0008024FF080431A614FF400510148FFF7AA
:1010EC00D5FBE3E70018024010B582B00024009451
:1010FC00214B5A6C42F480425A645A6C02F480427E
:10110C000092009A01941A6C42F080521A641B6C83
:10111C0003F080530193019B0320FFF74FFA224603
:10112C0021466FF00B00FFF75BFA224621466FF069
:10113C000A00FFF755FA224621466FF00900FFF727
:10114C004FFA224621466FF00400FFF749FA224677
:10115C0021466FF00300FFF743FA224621466FF059
:10116C000100FFF73DFA224621464FF0FF30FFF712
:10117C0037FA02B010BD00BF003802407047FEE7DE
:10118C00FEE7FEE7FEE770477047704708B5FFF7CC
:10119C0003FAFFF77EFA08BD0F49D1F8883043F403
:1011AC007003C1F888300D4B1A6842F001021A60C6
:1011BC00002098601A6822F0847222F480321A603F
:1011CC00074A5A601A6822F480221A60D8604FF0DD
:1011DC0000638B60704700BF00ED00E000380240F8
:1011EC001030002410B400F1180411F0010F0AD0D3
:1011FC000023022901D900F11C0404339A40226017
:10120C005DF8044B70470823F3E770B505460C46B0
:10121C001E46FFF7E7FF05F1340204F18041013966
:10122C008B00049842F821002A6A0221994022EA94
:10123C0001022A622A6A013306FA03F313432B6272
:10124C0070BD0000DFF834D0002103E00C4B5B587C
:10125C00435004310B480C4B42189A42F6D30B4ABC
:10126C0002E0002342F8043B094B9A42F9D3FFF702
:10127C0093FF00F011F8FFF709FF704700000320FF
:10128C003C130008000000200C0000200C00002083
:10129C002C000020FEE7000070B50D4E0D4CA41B79
:1012AC00A4100025A54209D10B4E0C4C00F018F8E7
:1012BC00A41BA4100025A54205D170BD56F82530FD
:1012CC0098470135EEE756F8253098470135F2E797
:1012DC0034130008341300083413000838130008C2
:1012EC00F8B500BFF8BC08BC9E467047F8B500BF07
:0812FC00F8BC08BC9E467047D7
:1013040000000000000000000102030406070809B1
:1013140000000000010203042E2E2F5372632F6D70
:0813240061696E2E63000000F8
:08132C001CEFFF7F010000002F
:04133400D1010008DB
:04133800AD010008FB
:0C133C0001000000100000000024F4007C
:04000005080012518C
:00000001FF
